{
  "contractName": "FileStore",
  "abi": [
    {
      "inputs": [],
      "stateMutability": "nonpayable",
      "type": "constructor"
    },
    {
      "inputs": [
        {
          "internalType": "string",
          "name": "",
          "type": "string"
        },
        {
          "internalType": "uint256",
          "name": "",
          "type": "uint256"
        }
      ],
      "name": "fileToOwners",
      "outputs": [
        {
          "internalType": "address",
          "name": "",
          "type": "address"
        }
      ],
      "stateMutability": "view",
      "type": "function",
      "constant": true
    },
    {
      "inputs": [
        {
          "internalType": "address",
          "name": "",
          "type": "address"
        },
        {
          "internalType": "uint256",
          "name": "",
          "type": "uint256"
        }
      ],
      "name": "ownerToFiles",
      "outputs": [
        {
          "internalType": "string",
          "name": "",
          "type": "string"
        }
      ],
      "stateMutability": "view",
      "type": "function",
      "constant": true
    },
    {
      "inputs": [
        {
          "internalType": "address",
          "name": "",
          "type": "address"
        },
        {
          "internalType": "address",
          "name": "",
          "type": "address"
        },
        {
          "internalType": "uint256",
          "name": "",
          "type": "uint256"
        }
      ],
      "name": "sharedFiles",
      "outputs": [
        {
          "internalType": "string",
          "name": "",
          "type": "string"
        }
      ],
      "stateMutability": "view",
      "type": "function",
      "constant": true
    },
    {
      "inputs": [
        {
          "internalType": "string",
          "name": "_cid",
          "type": "string"
        }
      ],
      "name": "addFile",
      "outputs": [
        {
          "internalType": "string[]",
          "name": "",
          "type": "string[]"
        }
      ],
      "stateMutability": "nonpayable",
      "type": "function"
    },
    {
      "inputs": [
        {
          "internalType": "string",
          "name": "_cid",
          "type": "string"
        }
      ],
      "name": "getFile",
      "outputs": [
        {
          "internalType": "string",
          "name": "",
          "type": "string"
        }
      ],
      "stateMutability": "view",
      "type": "function",
      "constant": true
    },
    {
      "inputs": [],
      "name": "getFiles",
      "outputs": [
        {
          "internalType": "string[]",
          "name": "",
          "type": "string[]"
        }
      ],
      "stateMutability": "view",
      "type": "function",
      "constant": true
    },
    {
      "inputs": [],
      "name": "toggleServiceStatus",
      "outputs": [],
      "stateMutability": "nonpayable",
      "type": "function"
    },
    {
      "inputs": [
        {
          "internalType": "address",
          "name": "_for",
          "type": "address"
        }
      ],
      "name": "getFilesFor",
      "outputs": [
        {
          "internalType": "string[]",
          "name": "",
          "type": "string[]"
        }
      ],
      "stateMutability": "view",
      "type": "function",
      "constant": true
    },
    {
      "inputs": [
        {
          "internalType": "address",
          "name": "_with",
          "type": "address"
        },
        {
          "internalType": "string",
          "name": "_cid",
          "type": "string"
        }
      ],
      "name": "shareFile",
      "outputs": [
        {
          "internalType": "string[]",
          "name": "",
          "type": "string[]"
        }
      ],
      "stateMutability": "nonpayable",
      "type": "function"
    }
  ],
  "bytecode": "0x60806040526001600060146101000a81548160ff02191690831515021790555034801561002b57600080fd5b50336000806101000a81548173ffffffffffffffffffffffffffffffffffffffff021916908373ffffffffffffffffffffffffffffffffffffffff1602179055506117208061007b6000396000f3fe608060405234801561001057600080fd5b50600436106100935760003560e01c8063d94e82f511610066578063d94e82f514610146578063dfa36d5b14610150578063e0876aa814610180578063eb9b9b64146101b0578063f04953f0146101e057610093565b80631a4ffd0114610098578063265159bb146100c85780632da96d73146100f85780637399ec3e14610116575b600080fd5b6100b260048036038101906100ad919061118e565b610210565b6040516100bf91906113b4565b60405180910390f35b6100e260048036038101906100dd9190611111565b610274565b6040516100ef91906113f1565b60405180910390f35b61010061032d565b60405161010d91906113cf565b60405180910390f35b610130600480360381019061012b919061106e565b610499565b60405161013d91906113f1565b60405180910390f35b61014e61055f565b005b61016a600480360381019061016591906110bd565b610619565b60405161017791906113cf565b60405180910390f35b61019a6004803603810190610195919061114d565b6109d3565b6040516101a791906113f1565b60405180910390f35b6101ca60048036038101906101c5919061114d565b610b3c565b6040516101d791906113cf565b60405180910390f35b6101fa60048036038101906101f59190611045565b610da2565b60405161020791906113cf565b60405180910390f35b600282805160208101820180518482526020830160208501208183528095505050505050818154811061024257600080fd5b906000526020600020016000915091509054906101000a900473ffffffffffffffffffffffffffffffffffffffff1681565b6001602052816000526040600020818154811061029057600080fd5b906000526020600020016000915091505080546102ac906115a3565b80601f01602080910402602001604051908101604052809291908181526020018280546102d8906115a3565b80156103255780601f106102fa57610100808354040283529160200191610325565b820191906000526020600020905b81548152906001019060200180831161030857829003601f168201915b505050505081565b606060011515600060149054906101000a900460ff16151514610385576040517f08c379a000000000000000000000000000000000000000000000000000000000815260040161037c90611413565b60405180910390fd5b600160003373ffffffffffffffffffffffffffffffffffffffff1673ffffffffffffffffffffffffffffffffffffffff168152602001908152602001600020805480602002602001604051908101604052809291908181526020016000905b82821015610490578382906000526020600020018054610403906115a3565b80601f016020809104026020016040519081016040528092919081815260200182805461042f906115a3565b801561047c5780601f106104515761010080835404028352916020019161047c565b820191906000526020600020905b81548152906001019060200180831161045f57829003601f168201915b5050505050815260200190600101906103e4565b50505050905090565b600360205282600052604060002060205281600052604060002081815481106104c157600080fd5b90600052602060002001600092509250505080546104de906115a3565b80601f016020809104026020016040519081016040528092919081815260200182805461050a906115a3565b80156105575780601f1061052c57610100808354040283529160200191610557565b820191906000526020600020905b81548152906001019060200180831161053a57829003601f168201915b505050505081565b60008054906101000a900473ffffffffffffffffffffffffffffffffffffffff1673ffffffffffffffffffffffffffffffffffffffff163373ffffffffffffffffffffffffffffffffffffffff16146105ed576040517f08c379a00000000000000000000000000000000000000000000000000000000081526004016105e490611433565b60405180910390fd5b600060149054906101000a900460ff1615600060146101000a81548160ff021916908315150217905550565b606060011515600060149054906101000a900460ff16151514610671576040517f08c379a000000000000000000000000000000000000000000000000000000000815260040161066890611413565b60405180910390fd5b81604051602001610682919061139d565b604051602081830303815290604052805190602001206106a1836109d3565b6040516020016106b1919061139d565b60405160208183030381529060405280519060200120146106d157600080fd5b600360003373ffffffffffffffffffffffffffffffffffffffff1673ffffffffffffffffffffffffffffffffffffffff16815260200190815260200160002060008473ffffffffffffffffffffffffffffffffffffffff1673ffffffffffffffffffffffffffffffffffffffff16815260200190815260200160002082908060018154018082558091505060019003906000526020600020016000909190919091509080519060200190610786929190610f10565b50600160008473ffffffffffffffffffffffffffffffffffffffff1673ffffffffffffffffffffffffffffffffffffffff168152602001908152602001600020829080600181540180825580915050600190039060005260206000200160009091909190915090805190602001906107ff929190610f10565b50600282604051610810919061139d565b9081526020016040518091039020839080600181540180825580915050600190039060005260206000200160009091909190916101000a81548173ffffffffffffffffffffffffffffffffffffffff021916908373ffffffffffffffffffffffffffffffffffffffff160217905550600360003373ffffffffffffffffffffffffffffffffffffffff1673ffffffffffffffffffffffffffffffffffffffff16815260200190815260200160002060008473ffffffffffffffffffffffffffffffffffffffff1673ffffffffffffffffffffffffffffffffffffffff168152602001908152602001600020805480602002602001604051908101604052809291908181526020016000905b828210156109c757838290600052602060002001805461093a906115a3565b80601f0160208091040260200160405190810160405280929190818152602001828054610966906115a3565b80156109b35780601f10610988576101008083540402835291602001916109b3565b820191906000526020600020905b81548152906001019060200180831161099657829003601f168201915b50505050508152602001906001019061091b565b50505050905092915050565b606060011515600060149054906101000a900460ff16151514610a2b576040517f08c379a0000000000000000000000000000000000000000000000000000000008152600401610a2290611413565b60405180910390fd5b6000610a3561032d565b905060005b8151811015610b345783604051602001610a54919061139d565b60405160208183030381529060405280519060200120828281518110610aa3577f4e487b7100000000000000000000000000000000000000000000000000000000600052603260045260246000fd5b6020026020010151604051602001610abb919061139d565b604051602081830303815290604052805190602001201415610b2157818181518110610b10577f4e487b7100000000000000000000000000000000000000000000000000000000600052603260045260246000fd5b602002602001015192505050610b37565b8080610b2c906115d5565b915050610a3a565b50505b919050565b606060011515600060149054906101000a900460ff16151514610b94576040517f08c379a0000000000000000000000000000000000000000000000000000000008152600401610b8b90611413565b60405180910390fd5b600160003373ffffffffffffffffffffffffffffffffffffffff1673ffffffffffffffffffffffffffffffffffffffff16815260200190815260200160002082908060018154018082558091505060019003906000526020600020016000909190919091509080519060200190610c0c929190610f10565b50600282604051610c1d919061139d565b9081526020016040518091039020339080600181540180825580915050600190039060005260206000200160009091909190916101000a81548173ffffffffffffffffffffffffffffffffffffffff021916908373ffffffffffffffffffffffffffffffffffffffff160217905550600160003373ffffffffffffffffffffffffffffffffffffffff1673ffffffffffffffffffffffffffffffffffffffff168152602001908152602001600020805480602002602001604051908101604052809291908181526020016000905b82821015610d97578382906000526020600020018054610d0a906115a3565b80601f0160208091040260200160405190810160405280929190818152602001828054610d36906115a3565b8015610d835780601f10610d5857610100808354040283529160200191610d83565b820191906000526020600020905b815481529060010190602001808311610d6657829003601f168201915b505050505081526020019060010190610ceb565b505050509050919050565b606060011515600060149054906101000a900460ff16151514610dfa576040517f08c379a0000000000000000000000000000000000000000000000000000000008152600401610df190611413565b60405180910390fd5b600160008373ffffffffffffffffffffffffffffffffffffffff1673ffffffffffffffffffffffffffffffffffffffff168152602001908152602001600020805480602002602001604051908101604052809291908181526020016000905b82821015610f05578382906000526020600020018054610e78906115a3565b80601f0160208091040260200160405190810160405280929190818152602001828054610ea4906115a3565b8015610ef15780601f10610ec657610100808354040283529160200191610ef1565b820191906000526020600020905b815481529060010190602001808311610ed457829003601f168201915b505050505081526020019060010190610e59565b505050509050919050565b828054610f1c906115a3565b90600052602060002090601f016020900481019282610f3e5760008555610f85565b82601f10610f5757805160ff1916838001178555610f85565b82800160010185558215610f85579182015b82811115610f84578251825591602001919060010190610f69565b5b509050610f929190610f96565b5090565b5b80821115610faf576000816000905550600101610f97565b5090565b6000610fc6610fc184611484565b611453565b905082815260208101848484011115610fde57600080fd5b610fe9848285611561565b509392505050565b600081359050611000816116bc565b92915050565b600082601f83011261101757600080fd5b8135611027848260208601610fb3565b91505092915050565b60008135905061103f816116d3565b92915050565b60006020828403121561105757600080fd5b600061106584828501610ff1565b91505092915050565b60008060006060848603121561108357600080fd5b600061109186828701610ff1565b93505060206110a286828701610ff1565b92505060406110b386828701611030565b9150509250925092565b600080604083850312156110d057600080fd5b60006110de85828601610ff1565b925050602083013567ffffffffffffffff8111156110fb57600080fd5b61110785828601611006565b9150509250929050565b6000806040838503121561112457600080fd5b600061113285828601610ff1565b925050602061114385828601611030565b9150509250929050565b60006020828403121561115f57600080fd5b600082013567ffffffffffffffff81111561117957600080fd5b61118584828501611006565b91505092915050565b600080604083850312156111a157600080fd5b600083013567ffffffffffffffff8111156111bb57600080fd5b6111c785828601611006565b92505060206111d885828601611030565b9150509250929050565b60006111ee838361127a565b905092915050565b6111ff81611525565b82525050565b6000611210826114c4565b61121a81856114e7565b93508360208202850161122c856114b4565b8060005b85811015611268578484038952815161124985826111e2565b9450611254836114da565b925060208a01995050600181019050611230565b50829750879550505050505092915050565b6000611285826114cf565b61128f81856114f8565b935061129f818560208601611570565b6112a8816116ab565b840191505092915050565b60006112be826114cf565b6112c88185611509565b93506112d8818560208601611570565b6112e1816116ab565b840191505092915050565b60006112f7826114cf565b611301818561151a565b9350611311818560208601611570565b80840191505092915050565b600061132a601083611509565b91507f5365727669636520696e616374697665000000000000000000000000000000006000830152602082019050919050565b600061136a601783611509565b91507f54686973207573657220686173206e6f206163636573730000000000000000006000830152602082019050919050565b60006113a982846112ec565b915081905092915050565b60006020820190506113c960008301846111f6565b92915050565b600060208201905081810360008301526113e98184611205565b905092915050565b6000602082019050818103600083015261140b81846112b3565b905092915050565b6000602082019050818103600083015261142c8161131d565b9050919050565b6000602082019050818103600083015261144c8161135d565b9050919050565b6000604051905081810181811067ffffffffffffffff8211171561147a5761147961167c565b5b8060405250919050565b600067ffffffffffffffff82111561149f5761149e61167c565b5b601f19601f8301169050602081019050919050565b6000819050602082019050919050565b600081519050919050565b600081519050919050565b6000602082019050919050565b600082825260208201905092915050565b600082825260208201905092915050565b600082825260208201905092915050565b600081905092915050565b600061153082611537565b9050919050565b600073ffffffffffffffffffffffffffffffffffffffff82169050919050565b6000819050919050565b82818337600083830152505050565b60005b8381101561158e578082015181840152602081019050611573565b8381111561159d576000848401525b50505050565b600060028204905060018216806115bb57607f821691505b602082108114156115cf576115ce61164d565b5b50919050565b60006115e082611557565b91507fffffffffffffffffffffffffffffffffffffffffffffffffffffffffffffffff8214156116135761161261161e565b5b600182019050919050565b7f4e487b7100000000000000000000000000000000000000000000000000000000600052601160045260246000fd5b7f4e487b7100000000000000000000000000000000000000000000000000000000600052602260045260246000fd5b7f4e487b7100000000000000000000000000000000000000000000000000000000600052604160045260246000fd5b6000601f19601f8301169050919050565b6116c581611525565b81146116d057600080fd5b50565b6116dc81611557565b81146116e757600080fd5b5056fea2646970667358221220a6605b8ed45801841b5ea32248dbed84fd6111c94645a5954ddff5eb2be5099964736f6c63430008000033",
  "immutableReferences": {},
  "source": "// SPDX-License-Identifier: MIT\npragma solidity ^0.8.0;\n\ncontract FileStore {\n  address admin;\n  bool active = true;\n\n  mapping (address => string[]) public ownerToFiles; \n  mapping (string => address[]) public fileToOwners;\n  mapping (address => mapping(address => string[])) public sharedFiles;\n  \n  constructor() public {\n    admin = msg.sender;\n  }\n\n  modifier isActive {\n    require(active == true, \"Service inactive\");\n    _;\n  }\n\n  modifier onlyOwner {\n    require(msg.sender == admin, \"This user has no access\");\n    _;\n  }\n\n  function addFile(string memory _cid) public isActive returns (string[] memory){\n    ownerToFiles[msg.sender].push(_cid);\n    fileToOwners[_cid].push(msg.sender);\n    return ownerToFiles[msg.sender];\n  }\n\n  function getFile(string memory _cid) public isActive view returns (string memory) {\n    string[] memory files = getFiles();\n    for(uint i = 0; i < files.length; i++) {\n      if(keccak256(abi.encodePacked(files[i])) == keccak256(abi.encodePacked(_cid))) {\n        return files[i];\n      }\n    }\n  }\n\n  function getFiles() public isActive view returns (string[] memory) {\n    return ownerToFiles[msg.sender];\n  }\n\n  function toggleServiceStatus() public onlyOwner {\n    active = !active;\n  }\n\n  function getFilesFor(address _for) public isActive view returns (string[] memory) {\n    return ownerToFiles[_for];\n  }\n\n  function shareFile(address _with, string memory _cid) public isActive returns (string[] memory) {\n    require(keccak256(abi.encodePacked(getFile(_cid))) == keccak256(abi.encodePacked(_cid)));\n\n    sharedFiles[msg.sender][_with].push(_cid);\n    ownerToFiles[_with].push(_cid);\n    fileToOwners[_cid].push(_with);\n    return sharedFiles[msg.sender][_with];\n    \n  }\n}\n",
  "sourcePath": "/media/kevin/Data/Projects/polygon-hackathon/blockchain/contracts/FileStore.sol",
  "compiler": {
    "name": "solc",
    "version": "0.8.0+commit.c7dfd78e.Emscripten.clang"
  },
  "schemaVersion": "3.4.3",
  "updatedAt": "2021-12-11T21:00:16.242Z",
  "networkType": "ethereum",
  "devdoc": {
    "kind": "dev",
    "methods": {},
    "version": 1
  },
  "userdoc": {
    "kind": "user",
    "methods": {},
    "version": 1
  }
}